:100000000C945C000C9484000C9484000C94840088
:100010000C9484000C9484000C9484000C94840050
:100020000C9484000C9484000C9484000C94840040
:100030000C9484000C9484000C9484000C94840030
:100040000C947B060C9484000C94FC080C948400A3
:100050000C9484000C9484000C9484000C94840010
:100060000C9469020C948400000024272A000025C7
:10007000282B000023262904040404040404040299
:100080000202020202030303030303010204081035
:100090002040800102040810200102040810200002
:1000A0000000070002010000030406000000000039
:1000B00000000000F500D30411241FBECFEFD4E0F0
:1000C000DEBFCDBF11E0A0E0B1E0E4E9F5E102C0A0
:1000D00005900D92AE30B107D9F711E0AEE0B1E076
:1000E00001C01D92AC3CB107E1F710E0C8EBD0E0D5
:1000F00004C02297FE010E94C40AC43BD107C9F77D
:100100000E94CC040C94C80A0C9400000895089531
:1001100081E08093170160931201109215011092F3
:100120001601089581E080931701609312011092E7
:1001300015011092160108958091110190911001FE
:10014000891B08959091100180911101981710F06A
:1001500080E00895E0910E01F0910F01E90FF11D8B
:1001600080819F5F9093100108959C0180911A01F6
:1001700090911B01892B11F1909110018091110137
:100180009817E0F090E00BC0E0910E01F0910F01A4
:10019000EA0FFB1FA20FB31F8C9180839F5FA92FD3
:1001A000B0E0A617B70784F3109210016093110115
:1001B000E0911A01F0911B01CB0109950895E0919E
:1001C0001801F0911901309729F010921501109241
:1001D00016010995089570931B0160931A01089503
:1001E000709319016093180108950895DF93CF93D8
:1001F0000F92CDB7DEB76983809117018823A9F0EC
:10020000809116018032B0F480911501E0911301C4
:10021000F0911401E80FF11D6083809115018F5F4B
:10022000809315018093160105C061E0CE0101960F
:100230000E942A020F90CF91DF9108950E94F6004C
:100240000895EF92FF920F931F93CF93DF937C015A
:10025000262F042F80911701882361F0372FE901A1
:1002600010E005C06991C7010E94F6001F5F1017DA
:10027000C8F305C0642F822F972F0E942A02DF91B6
:10028000CF911F910F91FF90EF900895FB01019086
:100290000020E9F73197E61BF70B4E2F0E94210152
:1002A0000895609113017091140121E040911601AD
:1002B000809112010E94E501109215011092160121
:1002C000109217010895862F413208F040E26091A4
:1002D0000E0170910F010E94AF01109210018093E6
:1002E000110108950E946301089561E070E080E2C9
:1002F00090E00E94390980930E0190930F011092B3
:1003000010011092110161E070E080E290E00E9423
:1003100039098093130190931401109215011092E2
:1003200016010E94DF0308950F931F938C01862FFF
:100330000E94AB018FED90E00E944C0285EB90E0B3
:100340000E944702C8010E9475011F910F910895F4
:100350000E9494010895880F8093BA000895982F01
:10036000413210F040E02FC080911D018823E1F759
:1003700081E080931D018FEF80932E011092250163
:1003800040932601990F916090931E0185EE809312
:10039000BC0080911D018130E1F38091250184171B
:1003A00010F440912501A0912301B091240120E097
:1003B00030E007C0FB01E20FF31F8D9180832F5FB8
:1003C0003F4F2417B8F3842F08951F93582F122FEF
:1003D000413210F081E03CC080911D018823E1F79B
:1003E00082E080931D018FEF80932E0110922501F2
:1003F00040932601A0912301B0912401FB0102C08A
:1004000081918D938E2F861B8417D0F3852F90E0DA
:10041000880F991F80931E0185EE8093BC001123E5
:1004200021F080911D018230E1F380912E018F3FF8
:1004300011F480E00DC080912E01803211F482E031
:1004400007C080912E01803311F084E001C083E069
:100450001F910895482F613210F081E00895809136
:100460001D01843011F082E0089560932A01A0916B
:100470002701B0912801842F9C01F90102C08191CC
:100480008D938E2F841B8617D0F380E00895909370
:1004900022018093210108959093200180931F01F0
:1004A0000895882311F085EC01C085E88093BC0095
:1004B000089585ED8093BC008091BC0084FDFCCF45
:1004C00010921D01089585EC8093BC0010921D01CF
:1004D00008951F920F920FB60F9211246F937F937E
:1004E0008F939F93EF93FF938091B90090E0887F63
:1004F00090708036910509F4E2C081369105CCF503
:100500008832910509F47BC089329105B4F48031B9
:10051000910509F46FC0813191053CF4009709F40D
:1005200038C1089709F040C165C08831910509F4C8
:1005300066C0809709F038C17FC08034910509F406
:10054000A3C08134910544F48033910509F47FC040
:10055000C89709F029C186C08035910509F486C085
:100560008835910509F495C08834910509F01CC1BE
:100570009EC08839910509F404C189399105ECF4CC
:100580008837910509F49BC0893791054CF488366A
:10059000910509F494C08037910509F005C18FC019
:1005A0008838910509F4EDC08039910509F48DC0B2
:1005B0008038910509F0F8C088C0803B910509F4A6
:1005C000B2C0813B91054CF4803A910509F491C089
:1005D000883A910509F0E8C0A6C0803C910509F46D
:1005E000D4C0883C910509F4D0C0883B910509F03E
:1005F000DBC0B1C080911E018093BB00C0C0909150
:10060000250180912601981778F490912501E091B9
:100610002301F0912401E90FF11D80818093BB003B
:100620009F5F90932501ABC085ED8093BC008091C6
:10063000BC0084FDFCCFB6C080E280932E0185ED26
:100640008093BC008091BC0084FDFCCFABC080E3F4
:1006500080932E0185ED8093BC008091BC0084FDC9
:10066000FCCFA0C088E380932E018FC0809125012C
:100670009091BB00E0912301F0912401E80FF11D5E
:1006800090838F5F809325019091250180912601B1
:1006900074C0809125019091BB00E0912301F091FD
:1006A0002401E80FF11D90838F5F8093250185ED74
:1006B0008093BC008091BC0084FDFCCF73C083E0BC
:1006C00080931D0110922D015AC080912D0180321E
:1006D00008F057C080912D019091BB00E0912B0153
:1006E000F0912C01E80FF11D90838F5F80932D0115
:1006F00046C080912D01803248F480912D01E09117
:100700002B01F0912C01E80FF11D108260912D0159
:10071000E0912101F091220170E080912B019091F4
:100720002C01099532C084E080931D0110922901AB
:1007300010922A01E0911F01F0912001099580910A
:100740002A01882341F481E080932A01E091270166
:10075000F0912801108290912901E0912701F091F8
:100760002801E90FF11D80818093BB009F5F90936A
:1007700029019091290180912A01981710F485ECA4
:1007800001C085E88093BC000FC085EC8093BC005D
:1007900009C010922E0185ED8093BC008091BC00B1
:1007A00084FDFCCF10921D01FF91EF919F918F91DD
:1007B0007F916F910F900FBE0F901F901895109220
:1007C0001D01449A459AE9EBF0E080818E7F808399
:1007D00080818D7F808388E48093B80085E4809356
:1007E000BC0061E070E080E290E00E9439098093F3
:1007F00023019093240161E070E080E290E00E9488
:100800003909809327019093280161E070E080E22C
:1008100090E00E94390980932B0190932C01089558
:10082000EFE2F1E090E08191980F81E0E833F80782
:10083000D1F7909339010895CF93DF93CFE2D1E0C0
:1008400069918AE391E00E94EC0481E0C833D80703
:10085000B9F7609139018AE391E00E94EC048AE3E0
:1008600091E00E941405DF91CF91089560E670E059
:100870008CE191E00E94920062E070E08CE191E0F6
:100880000E941E018CE191E00E94510142E050E083
:1008900060E670E08CE191E00E9472018CE191E0F1
:1008A0000E949C008230D0F38CE191E00E94A20073
:1008B00080932F018CE191E00E94A200809330018F
:1008C0000895833611F40E94360480E00E945B078D
:1008D00095958795959587958093310181E00E9444
:1008E0005B0795958795959587958093340180E072
:1008F0000E943608019721F48FEF8093320102C0E5
:100900001092320181E00E943608019721F48FEFA6
:100910008093330102C01092330182E00E943608B6
:10092000019721F48FEF80933701089510923701DA
:1009300008958AE391E00E94E404882399F08AE311
:1009400091E00E94E1040E946104EFE2F1E090E096
:100950008191980F81E0E833F807D1F7909339013E
:100960000E941C0408958CE191E00E94750160E0F2
:1009700080E00E94CD0760E081E00E94CD0760E04A
:1009800082E00E94CD0740E05BE460E070E08AE333
:1009900091E00E94E70408950E941E070E94B3049C
:1009A0000E949904FDCF84E091E090933B018093F5
:1009B0003A010895862F0E94BB0808950E94F3080B
:1009C00008950E94D40808950E94C3080895CB0199
:1009D000BA010E9482080895DC01ED91FC9101901A
:1009E000F081E02D09950895DC01ED91FC910190D5
:1009F000F081E02D099508950F931F93CF93DF9316
:100A00008C01EB0109C02196D801ED91FC91019078
:100A1000F081E02DC801099568816623A1F7DF9177
:100A2000CF911F910F9108950F931F938C01DC01BB
:100A3000ED91FC910190F081E02D6DE00995D801D8
:100A4000ED91FC910190F081E02D6AE0C8010995DB
:100A50001F910F9108950F931F938C01DC01ED916D
:100A6000FC910190F081E02D0995C8010E941405C8
:100A70001F910F9108950F931F938C010E94FC0406
:100A8000C8010E9414051F910F9108950F931F93A1
:100A90008C01DC01ED91FC910190F081E02D099534
:100AA000C8010E9414051F910F9108952F923F9243
:100AB0004F925F926F927F928F929F92AF92BF926E
:100AC000CF92DF92EF92FF920F931F93DF93CF931A
:100AD000CDB7DEB7A0970FB6F894DEBF0FBECDBF7F
:100AE0001C016A017B01411551056105710549F43D
:100AF000DC01ED91FC910190F081E02D60E309951E
:100B000054C0882499245401422E55246624772405
:100B100001E010E00C0F1D1F080D191DC701B601E3
:100B2000A30192010E94710AF80160830894811C5C
:100B3000911CA11CB11CC701B601A30192010E9426
:100B4000710AC901DA016C017D01C114D104E1040B
:100B5000F104F1F681E0E82EF12CEC0EFD1EE80C1C
:100B6000F91C3E010894611C711CD501C401019758
:100B7000A109B1096C01C818D90814C0F601EE0D1D
:100B8000FF1D60816A3010F4605D01C0695CD101B5
:100B9000ED91FC910190F081E02DC101099508943F
:100BA000E108F1086E147F0449F7A0960FB6F89497
:100BB000DEBF0FBECDBFCF91DF911F910F91FF9090
:100BC000EF90DF90CF90BF90AF909F908F907F90ED
:100BD0006F905F904F903F902F9008952AE00E9471
:100BE000560508950F931F938C010E94EE05C801CE
:100BF0000E9414051F910F910895AB0160E070E011
:100C00000E94EE0508950F931F938C01AB0160E0E5
:100C100070E00E94EE05C8010E9414051F910F911B
:100C20000895EF92FF920F931F93CF93DF93EC0100
:100C30007A018B0177FF0FC0E881F9810190F08183
:100C4000E02D6DE2099510950095F094E094E11C7B
:100C5000F11C011D111D2AE0B801A701CE010E945F
:100C60005605DF91CF911F910F91FF90EF9008955E
:100C70000F931F938C010E941106C8010E94140556
:100C80001F910F910895AB01662757FD6095762F50
:100C90000E94110608950F931F938C01AB016627E4
:100CA00057FD6095762F0E941106C8010E94140519
:100CB0001F910F910895DC012115310541F4ED914B
:100CC000FC910190F081E02D642F099508952A3060
:100CD000310519F40E94110608950E9456050895E1
:100CE0000F931F938C010E945B06C8010E9414059C
:100CF0001F910F9108951F920F920FB60F9211241A
:100D00002F938F939F93AF93BF9380913C019091CA
:100D10003D01A0913E01B0913F018050904CAF4FFA
:100D2000BF4F80933C0190933D01A0933E01B0934F
:100D30003F0127C080913C0190913D01A0913E016F
:100D4000B0913F0180589E43A040B04080933C0149
:100D500090933D01A0933E01B0933F0180914001EB
:100D600090914101A0914201B09143010196A11DD2
:100D7000B11D8093400190934101A0934201B09333
:100D8000430180913C0190913D01A0913E01B091C1
:100D90003F0181589E43A040B04060F6BF91AF91A3
:100DA0009F918F912F910F900FBE0F901F901895CC
:100DB0008FB7F89420914001309141014091420158
:100DC000509143018FBFB901CA010895EF92FF927C
:100DD0000F931F937B018C018FB7F89440914001D2
:100DE0005091410160914201709143018FBF2FB733
:100DF000F8948091400190914101A0914201B091FD
:100E000043012FBF841B950BA60BB70B8E159F05B7
:100E1000A007B10760F31F910F91FF90EF90089525
:100E2000019759F0FC01EE0FFF1FEE0FFF1F3297E5
:100E30008FB7F8943197F1F78FBF0895789484B500
:100E4000826084BD84B5816084BD85B5826085BDC6
:100E500085B5816085BDEEE6F0E0808181608083AC
:100E6000E1E8F0E08081826080838081816080831E
:100E7000E0E8F0E0808181608083E1EBF0E0808158
:100E800084608083E0EBF0E0808181608083EAE72A
:100E9000F0E08081846080838081826080838081B3
:100EA000816080838081806880831092C100089572
:100EB0008093060108958F70909106019295990F85
:100EC000990F907C982B90937C0080917A0080649D
:100ED00080937A0080917A0086FDFCCF2091780083
:100EE00040917900942F80E030E0282B392BC90104
:100EF00008951F93CF93DF93182FEB0161E00E94B9
:100F0000CD07E12FF0E0E156FF4F8491833051F49B
:100F100080918000806880938000D0938900C09386
:100F2000880037C0843051F48091800080628093C3
:100F30008000D0938B00C0938A002BC0813029F4AD
:100F400084B5806884BDC7BD24C0823029F484B5CF
:100F5000806284BDC8BD1DC0863041F48091B00060
:100F600080688093B000C093B30013C0873041F411
:100F70008091B00080628093B000C093B40009C03B
:100F8000C038D10514F460E001C061E0812F0E94F7
:100F9000EB07DF91CF911F910895282F30E0C90111
:100FA00085579F4FFC01949129583F4FF901849137
:100FB000882381F0E82FF0E0E859FF4FE491F0E05A
:100FC000662329F480819095892380830895808108
:100FD000892B80830895482F50E0CA0181569F4F86
:100FE000FC012491CA0185579F4FFC0194914958F7
:100FF0005F4FFA0134913323C1F1222331F12330C1
:1010000021F4809180008F7705C0243031F48091E5
:1010100080008F7D8093800018C0213019F484B542
:101020008F7704C0223021F484B58F7D84BD0DC03C
:10103000263021F48091B0008F7705C0273029F445
:101040008091B0008F7D8093B000E32FF0E0E359F2
:10105000FF4FE491F0E0662329F480819095892385
:10106000808308958081892B80830895482F50E0E4
:10107000CA0181569F4FFC012491CA0185579F4F99
:10108000FC01949149585F4FFA013491332319F4CC
:1010900020E030E035C0222331F1233021F480916B
:1010A00080008F7705C0243031F4809180008F7DDF
:1010B0008093800018C0213019F484B58F7704C064
:1010C000223021F484B58F7D84BD0DC0263021F4FB
:1010D0008091B0008F7705C0273029F48091B0004F
:1010E0008F7D8093B000E32FF0E0EE58FF4FE49146
:1010F000F0E0808120E030E0892311F021E030E051
:10110000C9010895EF92FF920F931F937B018C0109
:1011100022E030E040E050E00E94930A205C3D4B2A
:10112000404F5F4FCA01B901A80197010E94930A7D
:10113000C901DA010197A109B109292F3A2F4B2FD3
:10114000552747FD5A950196A11DB11D2093C50055
:1011500081508093C400E1ECF0E080818061808365
:101160008081886080838081806880831F910F9157
:10117000FF90EF900895982F8091C00085FFFCCFDD
:101180009093C60008958091440190914501805844
:101190009F4F2091460130914701821B930B60E8DD
:1011A00070E00E945E0A0895409146015091470107
:1011B00080914401909145018417950719F42FEF10
:1011C0003FEF0FC0FA01E85BFE4F2081CA01019694
:1011D00060E870E00E945E0A9093470180934601A8
:1011E00030E0C901089580914601909147019093A4
:1011F00045018093440108951F920F920FB60F92FC
:1012000011242F933F934F935F936F937F938F930B
:101210009F93AF93BF93EF93FF934091C600E091EC
:101220004401F0914501CF01019660E870E00E9411
:101230005E0A9C0180914601909147012817390769
:1012400039F0E85BFE4F4083309345012093440121
:10125000FF91EF91BF91AF919F918F917F916F918E
:101260005F914F913F912F910F900FBE0F901F9064
:1012700018950F931F93CF93DF93689F8001699F09
:10128000100D789F100D1124C8010E945509EC0122
:10129000009729F0A80160E070E00E94570ACE0193
:1012A000DF91CF911F910F910895CF93DF93BC01F0
:1012B0008230910510F462E070E0A091CA01B09113
:1012C000CB01ED01E0E0F0E040E050E021C088819A
:1012D00099818617970769F48A819B81309719F065
:1012E0009383828304C09093CB018093CA01FE0153
:1012F00034C06817790738F44115510519F084177F
:10130000950708F4AC01FE018A819B819C01E901EB
:101310002097E9F641155105A9F1CA01861B970BE3
:10132000049708F4BA01E0E0F0E02AC08D919C91A6
:10133000119784179507F9F46417750781F41296CD
:101340008D919C911397309719F09383828304C0F9
:101350009093CB018093CA01FD0132964CC0CA0123
:10136000861B970BFD01E80FF91F6193719302979C
:101370008D939C9340C0FD01828193819C01D90192
:101380001097A1F68091C8019091C901892B41F471
:101390008091090190910A019093C9018093C8013D
:1013A00040910B0150910C014115510541F44DB78D
:1013B0005EB78091070190910801481B590B20915D
:1013C000C8013091C901CA01821B930B8617970788
:1013D00080F0AB014E5F5F4F8417950750F0420FCE
:1013E000531F5093C9014093C801F9016193719350
:1013F00002C0E0E0F0E0CF01DF91CF910895CF93FC
:10140000DF93009709F450C0EC0122971B821A82E7
:10141000A091CA01B091CB01109709F140E050E0D2
:10142000AC17BD0708F1BB83AA83FE01219131915E
:10143000E20FF31FAE17BF0779F48D919C911197BE
:10144000280F391F2E5F3F4F3983288312968D91C5
:101450009C9113979B838A834115510571F4D09316
:10146000CB01C093CA0120C012968D919C91139715
:10147000AD01009711F0DC01D3CFFA01D383C28311
:1014800021913191E20FF31FCE17DF0769F48881B4
:101490009981280F391F2E5F3F4FFA013183208336
:1014A0008A819B8193838283DF91CF910895DC01B0
:1014B00001C06D9341505040E0F7089597FB092E0D
:1014C00007260AD077FD04D049D006D000201AF4B0
:1014D000709561957F4F0895F6F7909581959F4F90
:1014E0000895A1E21A2EAA1BBB1BFD010DC0AA1F65
:1014F000BB1FEE1FFF1FA217B307E407F50720F07D
:10150000A21BB30BE40BF50B661F771F881F991FF7
:101510001A9469F760957095809590959B01AC0140
:10152000BD01CF01089597FB092E05260ED057FD6A
:1015300004D0D7DF0AD0001C38F450954095309580
:1015400021953F4F4F4F5F4F0895F6F79095809547
:10155000709561957F4F8F4F9F4F0895AA1BBB1BBE
:1015600051E107C0AA1FBB1FA617B70710F0A61BA3
:10157000B70B881F991F5A95A9F780959095BC01C4
:10158000CD010895EE0FFF1F0590F491E02D099411
:04159000F894FFCFFD
:0E15940000000000DA04012000CC010000007D
:00000001FF
