:100000000C945C000C9484000C9484000C94840088
:100010000C9484000C9484000C9484000C94840050
:100020000C9484000C9484000C9484000C94840040
:100030000C9484000C9484000C9484000C94840030
:100040000C9487050C9484000C94D9070C948400BC
:100050000C9484000C9484000C9484000C94840010
:100060000C94A7020C948400000024272A00002589
:10007000282B000023262904040404040404040299
:100080000202020202030303030303010204081035
:100090002040800102040810200102040810200002
:1000A0000000070002010000030406000000000039
:1000B00000000000B401860511241FBECFEFD4E07C
:1000C000DEBFCDBF11E0A0E0B1E0E2EFF4E102C09D
:1000D00005900D92A830B107D9F711E0A8E0B1E082
:1000E00001C01D92A03CB107E1F710E0C8EBD0E0E1
:1000F00004C02297FE010E94740AC43BD107C9F7CD
:100100000E94AF040C94780A0C940000089508959E
:1001100081E08093110160930C0110920F01109205
:100120001001089580910B0190910A01891B992774
:10013000089520910A0180910B01281710F080E0AA
:100140000AC0E0910801F0910901E20FF11D8081E0
:100150002F5F20930A0199270895AC018091140123
:1001600090911501892B29F190910A0180910B0141
:100170009817F8F020E030E00AC0E0910801F09113
:100180000901EA0FFB1FA40FB51F8C918083822FFA
:100190002F5F3F4FA82FBB27A617B70774F3109206
:1001A0000A0160930B01E0911401F0911501CB015C
:1001B00009950895E0911201F0911301309729F00B
:1001C00010920F0110921001099508957093150176
:1001D00060931401089570931301609312010895C0
:1001E000CF93DF93CDB7DEB721970FB6F894DEBF7C
:1001F0000FBECDBF6983809111018823A9F0809142
:1002000010018032B0F480910F01E0910D01F09166
:100210000E01E80FF11D608380910F018F5F8093C5
:100220000F018093100105C061E0CE0101960E948C
:100230002C0221960FB6F894DEBF0FBECDBFDF9122
:10024000CF9108950E94F0000895EF92FF920F93CE
:100250001F93CF93DF937C01EB01042F8091110159
:10026000882369F010E008C0FE01E10FF11D6081F4
:10027000C7010E94F0001F5F1017B1F704C0642F80
:10028000CE010E942C02DF91CF911F910F91FF9020
:10029000EF900895FB0101900020E9F73197E61BEC
:1002A000F70B4E2F0E942501089560910D0170916A
:1002B0000E0121E04091100180910C010E94F40197
:1002C00010920F01109210011092110108951F93C6
:1002D000862F142F413208F010E2609108017091CE
:1002E0000901412F0E94C30110920A0110930B01D2
:1002F0001F9108950E946701089561E070E080E217
:1003000090E00E94F20890930901809308011092F6
:100310000A0110920B0161E070E080E290E00E941F
:10032000F20890930E0180930D0110920F0110922C
:1003300010010E94760208950F931F938C01862F5F
:100340000E94BF018AED90E00E9459028DEA90E080
:100350000E945402C8010E947D011F910F910895CF
:100360000E949C0108950895089581E080931101F1
:1003700060930C0110920F01109210010895880FE4
:100380008093BA000895982F413218F081E090E0F0
:100390000895809117018823E1F781E08093170188
:1003A00010921F0140932001990F916090931801C2
:1003B00085EE8093BC00809117018130E1F320919C
:1003C0001D0130911E0190E00AC0E92FFF27DB01DB
:1003D000AE0FBF1FE20FF31F80818C939F5F9417B6
:1003E000A1F780E090E008951F93182F942F4132D9
:1003F00018F081E090E02EC0809117018823E1F78A
:1004000082E08093170110921F0190932001409188
:100410001D0150911E0130E00AC0E32FFF27DA01D1
:10042000AE0FBF1FE60FF71F80818C933F5F391718
:10043000A1F7812F9927880F991F8093180185EEC6
:100440008093BC00222321F0809117018230E1F3D8
:1004500080E090E01F910895CF93DF93EC0161322B
:1004600018F081E090E01DC080911701843019F0F0
:1004700082E090E016C060932401409121015091E8
:10048000220120E00AC0E22FFF27DA01AE0FBF1FD2
:10049000EC0FFD1F80818C932F5F2617A1F780E062
:1004A00090E0DF91CF91089590931C0180931B0100
:1004B000089590931A01809319010895882311F0EB
:1004C00085EC01C085E88093BC00089585ED80939C
:1004D000BC008091BC0084FDFCCF109217010895F0
:1004E00085EC8093BC0010921701089510921701BB
:1004F000449A459AE9EBF0E080818E7F8083808189
:100500008D7F808388E48093B80085E48093BC006D
:1005100061E070E080E290E00E94F20890931E019A
:1005200080931D0161E070E080E290E00E94F2089B
:10053000909322018093210161E070E080E290E0DD
:100540000E94F208909326018093250108951F923E
:100550000F920FB60F9211242F933F934F935F93F7
:100560006F937F938F939F93AF93BF93EF93FF937B
:100570008091B9009927887F90708036910509F4A1
:10058000BDC081369105CCF58832910509F47BC058
:1005900089329105B4F48031910509F46FC081313D
:1005A00091053CF4009709F412C1089709F011C1B4
:1005B00065C08831910509F466C0809709F009C1CA
:1005C00006C18034910509F485C08134910544F455
:1005D0008033910509F4FBC0C89709F0FAC0F1C057
:1005E0008035910509F468C08835910509F477C014
:1005F0008834910509F0EDC0EAC08839910509F405
:10060000DEC089399105ECF48837910509F476C08C
:10061000893791054CF48836910509F46FC080370D
:10062000910509F0D6C06AC08838910509F4C7C0A1
:100630008039910509F468C08038910509F0C9C076
:1006400063C0803B910509F48DC0813B91054CF45A
:10065000803A910509F46CC0883A910509F0B9C057
:1006600081C0803C910509F4ACC0883C910509F437
:10067000A8C0883B910509F0ACC08CC080911801DE
:100680008093BB0015C090911F01809120019817A5
:1006900008F09DC090911F01E0911D01F0911E0195
:1006A000E90FF11D80818093BB009F5F90931F0134
:1006B00085EC8093BC008DC080911F01E0911D01ED
:1006C000F0911E01E80FF11D9091BB0090838F5FA8
:1006D00080931F0190911F01809120016DC0809136
:1006E0001F01E0911D01F0911E01E80FF11D909195
:1006F000BB0090838F5F80931F0169C083E080936C
:10070000170110922701D4CF80912701803208F081
:1007100056C090912701E0912501F0912601E90F43
:10072000F11D8091BB0080839F5F90932701C0CF14
:1007300080912701803248F480912701E0912501C2
:10074000F0912601E80FF11D1082609127017727B3
:10075000E0911B01F0911C018091250190912601EF
:1007600009952FC084E08093170110922301109205
:100770002401E0911901F0911A0109958091240159
:10078000882341F481E080932401E0912101F091DC
:100790002201108290912301E0912101F091220128
:1007A000E90FF11D80818093BB009F5F909323012F
:1007B0009091230180912401981708F479CF85E85E
:1007C00078CF85EC8093BC001092170102C00E9484
:1007D0006602FF91EF91BF91AF919F918F917F91B1
:1007E0006F915F914F913F912F910F900FBE0F909E
:1007F0001F9018951092320190E0E8E2F1E08191AB
:10080000980F81E0E133F807D1F790933201089512
:10081000CF93DF93C8E2D1E0699183E391E00E9436
:10082000CA0481E0C133D807B9F76091320183E38C
:1008300091E00E94CA0483E391E00E94D204DF9118
:10084000CF91089560E670E086E191E00E94B501E5
:1008500062E070E086E191E00E94220186E191E091
:100860000E94550142E050E060E670E086E191E0D0
:100870000E947A0186E191E00E9492008230D0F3DA
:1008800086E191E00E9499008093280186E191E041
:100890000E949900809329010895833611F40E94E3
:1008A000220480E00E943806959587959595879556
:1008B00080932A0181E00E94380695958795959549
:1008C000879580932D0182E00E94C806019721F44C
:1008D0008FEF80932B0102C010922B0183E00E94C6
:1008E000C806019721F48FEF80932C0102C010926B
:1008F0002C0184E00E94C806019721F48FEF8093B9
:100900003001089510923001089583E391E00E9430
:100910007C05882351F083E391E00E9479050E94D1
:100920004D040E94FA030E940804089586E191E0B4
:100930000E947D0160E082E00E94AA0660E083E000
:100940000E94AA0660E084E00E94AA0640E05BE400
:1009500060E070E083E391E00E94800508950E94CA
:10096000F3050E9496040E948504FDCF0895089522
:10097000CB01BA013327442755270E941F08089549
:100980002AE00E94B8040895AB01662777270E94E9
:10099000C0040895862F0E9417080895862F0E948C
:1009A000170808950F931F938C016DE00E94CE04E9
:1009B0006AE0C8010E94CE041F910F9108950F9321
:1009C0001F938C010E94C004C8010E94D2041F9191
:1009D0000F9108950F931F938C010E94C404C801C6
:1009E0000E94D2041F910F9108950F931F938C01C1
:1009F0000E94CA04C8010E94D2041F910F91089559
:100A00000F931F938C010E94CE04C8010E94D20450
:100A10001F910F910895EF92FF920F931F93CF9321
:100A2000DF93EC017A018B0177FF0BC06DE20E942E
:100A3000CE0410950095F094E094E11CF11C011D8A
:100A4000111D2AE0B801A701CE010E94B804DF9170
:100A5000CF911F910F91FF90EF9008950F931F93E7
:100A60008C010E940B05C8010E94D2041F910F91B6
:100A700008952115310521F4642F0E94CE040895B4
:100A80002A30310519F40E940B0508950E94B8041C
:100A900008950F931F938C010E943905C8010E948D
:100AA000D2041F910F910895AB01662757FD609501
:100AB000762F0E940B0508950F931F938C010E94BF
:100AC0005405C8010E94D2041F910F910895CB01D3
:100AD0000E94E50808950F931F938C010E946705FB
:100AE000C8010E94D2041F910F9108950E94D0075F
:100AF00008950E94B10708950E94A00799270895BC
:100B0000CB01BA010E945F070895089508951F92CE
:100B10000F920FB60F9211248F939F93AF93BF93B1
:100B20008091380190913901A0913A01B0913B0137
:100B30000196A11DB11D8093380190933901A093B6
:100B40003A01B0933B01BF91AF919F918F910F906C
:100B50000FBE0F901F901895609138017091390168
:100B600080913A0190913B0127E0660F771F881F23
:100B7000991F2A95D1F72DE730E040E050E00E9420
:100B8000210ACA01B9010895AF92BF92CF92DF92B4
:100B9000EF92FF920F931F935B016C010E94AC05D3
:100BA0007B018C010E94AC056E197F09800B910BB3
:100BB0006A157B058C059D05A8F31F910F91FF9089
:100BC000EF90DF90CF90BF90AF900895019751F0D4
:100BD000880F991F880F991F02972FB7F8940197D4
:100BE000F1F72FBF089578941092380110923901CF
:100BF00010923A0110923B0184B5826084BD84B5A5
:100C0000816084BD85B5826085BD85B5816085BD07
:100C1000EEE6F0E0808181608083E1E8F0E08081B1
:100C200082608083808181608083E0E8F0E0808161
:100C300081608083E1EBF0E0808184608083E0EB81
:100C4000F0E0808181608083EAE7F0E08081846069
:100C500080838081826080838081816080838081C5
:100C6000806880831092C1000895809300010895E8
:100C7000909100019295990F990F907C8F70982B0D
:100C800090937C0080917A00806480937A008091B8
:100C90007A0086FDFCCF2091780080917900992719
:100CA000982F88273327822B932B08951F93CF9358
:100CB000DF93182FEB0161E00E94AA06E12FFF27C6
:100CC000E156FF4F8491833051F480918000806819
:100CD00080938000D0938900C093880037C084300F
:100CE00051F480918000806280938000D0938B00CB
:100CF000C0938A002BC0813029F484B5806884BDFC
:100D0000C7BD24C0823029F484B5806284BDC8BDCB
:100D10001DC0863041F48091B00080688093B0009F
:100D2000C093B30013C0873041F48091B00080625B
:100D30008093B000C093B40009C0C038D10514F44A
:100D400060E001C061E0812F0E941407DF91CF9124
:100D50001F910895282F3327C90185579F4FFC0104
:100D6000949129583F4FF9018491882381F0E82F0D
:100D7000FF27E859FF4FE491FF27662329F480817C
:100D800090958923808308958081892B808308959D
:100D9000482F5527CA0181569F4FFC012491CA0153
:100DA00085579F4FFC01949149585F4FFA01349148
:100DB000332319F480E090E00895222331F12330A9
:100DC00021F4809180008F7705C0243031F4809128
:100DD00080008F7D8093800018C0213019F484B585
:100DE0008F7704C0223021F484B58F7D84BD0DC07F
:100DF000263021F48091B0008F7705C0273029F488
:100E00008091B0008F7D8093B000E32FFF27EE58D4
:100E1000FF4FE491FF27808120E030E0892311F02B
:100E200021E030E0C9010895482F5527CA018156B5
:100E30009F4FFC012491CA0185579F4FFC0194915B
:100E400049585F4FFA0134913323C1F1222331F124
:100E5000233021F4809180008F7705C0243031F455
:100E6000809180008F7D8093800018C0213019F41C
:100E700084B58F7704C0223021F484B58F7D84BD82
:100E80000DC0263021F48091B0008F7705C0273047
:100E900029F48091B0008F7D8093B000E32FFF276D
:100EA000E359FF4FE491FF27662329F48081909551
:100EB0008923808308958081892B80830895EF9210
:100EC000FF920F931F937B018C0122E030E040E002
:100ED00050E00E94430A205C3D4B404F5F4FCA01E7
:100EE000B901A80197010E94430A215030404040B7
:100EF0005040BB2757FDBA95A52F942F832F2F5F06
:100F00003F4F4F4F5F4F8093C50021502093C40047
:100F1000E1ECF0E080818061808380818860808363
:100F20008081806880831F910F91FF90EF900895DA
:100F3000982F8091C00085FFFCCF9093C600089544
:100F40008091340190913501209136013091370123
:100F5000821B930B80589F4F60E870E00E940E0A3E
:100F6000089540913601509137018091340190915C
:100F700035018417950719F48FEF9FEF0895FA0153
:100F8000E45CFE4F2081CA01019660E870E00E9497
:100F90000E0A9093370180933601822F9927089586
:100FA00080913601909137019093350180933401FF
:100FB00008951F920F920FB60F9211242F933F9313
:100FC0004F935F936F937F938F939F93AF93BF9351
:100FD000EF93FF934091C600E0913401F091350109
:100FE000CF01019660E870E00E940E0A9C0180919A
:100FF0003601909137012817390739F0E45CFE4F2C
:1010000040833093350120933401FF91EF91BF91DC
:10101000AF919F918F917F916F915F914F913F9190
:101020002F910F900FBE0F901F9018950895982F35
:101030008091C00085FFFCCF9093C60008952F9249
:101040003F924F925F926F927F928F929F92AF9258
:10105000BF92CF92DF92EF92FF920F931F93CF93A5
:10106000DF93CDB7DEB7A0970FB6F894DEBF0FBE03
:10107000CDBF6B017C0129013A0161157105810524
:10108000910541F48091C00085FFFCCF80E38093FF
:10109000C60041C08824992454011E010894211CD3
:1010A000311C8101080D191DC701B601A301920170
:1010B0000E94210AF80160830894811C911CA11CE4
:1010C000B11CC701B601A30192010E94210A690166
:1010D0007A01211531054105510519F79E012F5F50
:1010E0003F4F14C0089481089108A108B108F90184
:1010F000E80DF91DE081EA3010F4E05D01C0E95C23
:101100008091C00085FFFCCFE093C600811491045C
:10111000A104B10439F7A0960FB6F894DEBF0FBE54
:10112000CDBFDF91CF911F910F91FF90EF90DF9096
:10113000CF90BF90AF909F908F907F906F905F9077
:101140004F903F902F90089520E130E040E050E034
:101150000E941F08089528E030E040E050E00E941F
:101160001F08089522E030E040E050E00E941F0890
:1011700008958091C00085FFFCCF8AE08093C6006F
:101180000895EF92FF920F931F937B018C0197FFBD
:101190000FC08091C00085FFFCCF8DE28093C60018
:1011A00010950095F094E094E11CF11C011D111DB7
:1011B0002AE030E040E050E0C801B7010E941F087B
:1011C0001F910F91FF90EF900895FC0107C080914F
:1011D000C00085FFFCCF31969093C6009081992383
:1011E000B1F708950F931F93CF93DF93869F8001EC
:1011F000879F100D969F100D1124C8010E940E09A3
:10120000EC01009729F0A80160E070E00E94070A55
:10121000CE01DF91CF911F910F910895CF93DF936E
:10122000AC01029710F442E050E0A091BE01B091F1
:10123000BF01FD01C0E0D0E020E030E020C08081AF
:1012400091818417950769F482819381209719F021
:101250009B838A8304C09093BF018093BE01CF011A
:1012600032C04817590738F42115310519F0821793
:10127000930708F49C01EF010280F381E02D309781
:10128000F1F62115310589F1C901841B950B0497ED
:1012900008F4A901E0E0F0E026C08D919C9111973F
:1012A00082179307E9F44817590779F4ED018A8109
:1012B0009B81309719F09383828304C09093BF0180
:1012C0008093BE01CD01029649C0841B950BFD01A0
:1012D000E80FF91F4193519302978D939C933AC065
:1012E000FD01A281B3811097C1F68091BC0190915C
:1012F000BD01892B41F480910301909104019093E9
:10130000BD018093BC01209105013091060121159A
:10131000310541F42DB73EB7809101019091020152
:10132000281B390BE091BC01F091BD012E1B3F0B36
:101330002417350788F0CA0102962817390760F08C
:10134000CF01840F951F02969093BD018093BC013D
:1013500041935193CF0102C080E090E0DF91CF91A3
:101360000895CF93DF93009709F44EC0EC012297C4
:101370001B821A82A091BE01B091BF01109711F19A
:1013800040E050E001C0DC01AC17BD0700F1BB83B9
:10139000AA83FE0121913191E20FF31FEA17FB07A7
:1013A00071F42E5F3F4F8D919C911197820F931F87
:1013B00099838883FD01828193819B838A83411570
:1013C000510559F4D093BF01C093BE011DC0FD016A
:1013D00082819381AD010097B1F6FA01D383C28374
:1013E00021913191E20FF31FEC17FD0769F42E5F95
:1013F0003F4F88819981820F931FFA0191838083E7
:101400008A819B8193838283DF91CF910895DC0150
:1014100001C06D9341505040E0F7089597FB092EAD
:1014200007260AD077FD04D049D006D000201AF450
:10143000709561957F4F0895F6F7909581959F4F30
:101440000895A1E21A2EAA1BBB1BFD010DC0AA1F05
:10145000BB1FEE1FFF1FA217B307E407F50720F01D
:10146000A21BB30BE40BF50B661F771F881F991F98
:101470001A9469F760957095809590959B01AC01E1
:10148000BD01CF01089597FB092E05260ED057FD0B
:1014900004D0D7DF0AD0001C38F450954095309521
:1014A00021953F4F4F4F5F4F0895F6F790958095E8
:1014B000709561957F4F8F4F9F4F0895AA1BBB1B5F
:1014C00051E107C0AA1FBB1FA617B70710F0A61B44
:1014D000B70B881F991F5A95A9F780959095BC0165
:1014E000CD010895EE0FFF1F0590F491E02D0994B2
:0214F000FFCF2C
:0814F200012000C00100000010
:00000001FF
